:020000040800F2
:1030000000F00020FD230108A5330008B1330008BB
:10301000B9330008C1330008C933000800000000BC
:10302000000000000000000000000000DD33000888
:10303000D133000800000000E9330008F533000830
:10304000013400080D340008193400082534000844
:10305000313400083D340008493400085534000874
:10306000613400086D3400087934000885340008A4
:1030700095340008A1340008AD340008B9340008C4
:10308000C5340008D1340008DD340008E9340008F4
:10309000F5340008013500080D3500081935000821
:1030A00025350008313500083D3500084935000850
:1030B00055350008613500086D3500087935000880
:1030C00085350008913500089D350008A9350008B0
:1030D000B5350008C1350008CD350008D9350008E0
:1030E000E5350008F1350008FD350008093600080F
:1030F00015360008213600082D360008393600083C
:1031000045360008513600085D360008693600086B
:1031100075360008813600088D360008993600089B
:10312000A5360008B1360008BD360008C9360008CB
:1031300080B584B000AF00F0BBFF4FF4FA7005F02B
:10314000FDF840F60040C4F201004FF001010AF022
:1031500057FE4FF4FA7005F0F1F840F60040C4F263
:1031600001004FF001010AF03DFE40F60000C4F2FC
:1031700001004FF004010AF043FE4FF4FA7005F02D
:10318000DDF840F60000C4F201004FF004010AF03F
:1031900029FE40F60000C4F201004FF008010AF0D9
:1031A0002FFE4FF4FA7005F0C9F840F60000C4F2A3
:1031B00001004FF008010AF015FE40F60040C4F28D
:1031C00001004FF001010AF01BFE40F60000C4F2BE
:1031D00001004FF004010AF013FE40F60000C4F2B3
:1031E00001004FF008010AF00BFE40F60000C4F2A7
:1031F00001004FF080010AF09DFD0346002BF4D141
:103200004FF4FA7005F09AF845F63C40C0F601001C
:1032100004F044FE4FF4FA7005F090F840F60040D8
:10322000C4F201004FF001010AF0DCFD40F600009D
:10323000C4F201004FF004010AF0D4FD40F6000092
:10324000C4F201004FF008010AF0CCFD4FF47A708F
:1032500005F074F840F60040C4F201004FF001019F
:103260000AF0CEFD40F60000C4F201004FF0040168
:103270000AF0C6FD40F60000C4F201004FF008015C
:103280000AF0BEFD4FF47A7005F058F800F07CFBB0
:1032900040F22C23C2F2000340F2DC521A8040F2CA
:1032A0000C23C2F200034FF000021A8040F22C23DC
:1032B000C2F2000340F2DC525A8040F20C23C2F208
:1032C00000034FF000025A8001F040FE4FF4FA7004
:1032D00005F034F84FF001037B6049E040F6004010
:1032E000C4F201004FF001010AF08AFD45F6584092
:1032F000C0F6010004F0D2FD40F2F403C2F2000374
:103300001B889BB218464FF0040104F083FB40F287
:10331000F403C2F200031B889BB2FB6045F66840D1
:10332000C0F6010004F0BAFDFB68A3F5FE63A3F14B
:103330000F03002BB8BF5B42BB6045F67C40C0F674
:10334000010004F0ABFD45F68C40C0F6010004F02E
:10335000A5FDB8684FF0040104F05CFB45F6984009
:10336000C0F6010004F09AFD7B6803F101037B6065
:103370007A6842F20F739A42B0DD45F6A040C0F67B
:10338000010004F08BFD40F60040C4F201004FF054
:1033900001010AF027FD4FF00003184607F110075E
:1033A000BD4680BD80B400AFBD4680BC704700BF45
:1033B00080B400AFFEE700BF80B400AFFEE700BFFF
:1033C00080B400AFFEE700BF80B400AFFEE700BFEF
:1033D00080B400AFBD4680BC704700BF80B400AF72
:1033E000BD4680BC704700BF80B400AFBD4680BC06
:1033F000704700BF80B500AF04F00EFFBD4680BD32
:1034000080B400AFBD4680BC704700BF80B400AF41
:10341000BD4680BC704700BF80B400AFBD4680BCD5
:10342000704700BF80B400AFBD4680BC704700BF8E
:1034300080B400AFBD4680BC704700BF80B400AF11
:10344000BD4680BC704700BF80B400AFBD4680BCA5
:10345000704700BF80B400AFBD4680BC704700BF5E
:1034600080B400AFBD4680BC704700BF80B400AFE1
:10347000BD4680BC704700BF80B400AFBD4680BC75
:10348000704700BF80B500AF4FF002000AF0E6F9C8
:10349000BD4680BD80B400AFBD4680BC704700BF54
:1034A00080B400AFBD4680BC704700BF80B400AFA1
:1034B000BD4680BC704700BF80B400AFBD4680BC35
:1034C000704700BF80B400AFBD4680BC704700BFEE
:1034D00080B400AFBD4680BC704700BF80B400AF71
:1034E000BD4680BC704700BF80B400AFBD4680BC05
:1034F000704700BF80B500AF10F0B4FDBD4680BD81
:1035000080B400AFBD4680BC704700BF80B400AF40
:10351000BD4680BC704700BF80B400AFBD4680BCD4
:10352000704700BF80B400AFBD4680BC704700BF8D
:1035300080B400AFBD4680BC704700BF80B400AF10
:10354000BD4680BC704700BF80B400AFBD4680BCA4
:10355000704700BF80B500AF00F03EFABD4680BDA9
:1035600080B500AF00F098FEBD4680BD80B500AFCD
:1035700000F0F0FFBD4680BD80B400AFBD4680BC0A
:10358000704700BF80B400AFBD4680BC704700BF2D
:1035900080B400AFBD4680BC704700BF80B400AFB0
:1035A000BD4680BC704700BF80B400AFBD4680BC44
:1035B000704700BF80B400AFBD4680BC704700BFFD
:1035C00080B400AFBD4680BC704700BF80B400AF80
:1035D000BD4680BC704700BF80B400AFBD4680BC14
:1035E000704700BF80B400AFBD4680BC704700BFCD
:1035F00080B400AFBD4680BC704700BF80B400AF50
:10360000BD4680BC704700BF80B400AFBD4680BCE3
:10361000704700BF80B400AFBD4680BC704700BF9C
:1036200080B400AFBD4680BC704700BF80B400AF1F
:10363000BD4680BC704700BF80B400AFBD4680BCB3
:10364000704700BF80B400AFBD4680BC704700BF6C
:1036500080B500AF07F084FEBD4680BD80B500AFE9
:1036600003F02CFBBD4680BD80B400AFBD4680BCDE
:10367000704700BF80B400AFBD4680BC704700BF3C
:1036800080B400AFBD4680BC704700BF80B500AFBE
:1036900001F0C2F8BD4680BD80B400AFBD4680BC1D
:1036A000704700BF80B400AFBD4680BC704700BF0C
:1036B00080B400AFBD4680BC704700BF80B400AF8F
:1036C000BD4680BC704700BF80B400AFBD4680BC23
:1036D000704700BF80B594B000AF0346FB714FF454
:1036E00000704FF001010BF04DFD4FF001004FF065
:1036F00001010BF01BFD07F14C0318460AF004FB17
:10370000FB79A7F84C304FF0030387F84E304FF0A9
:10371000000387F84F3007F14C0341F20000C4F278
:10372000010019460AF010FA4FF4C0600AF07CFD5F
:1037300007F1480318460AF03DFE4FF00B0387F8E7
:1037400048304FF0060387F849304FF0060387F8FA
:103750004A304FF0010387F84B3007F14803184611
:103760000AF076FD40F20800C4F2020009F05EFEA5
:1037700007F11C03184609F0C1FF42F24C43C4F2A2
:103780000103FB6140F2F403C2F200033B624FF01D
:1037900000037B624FF00603BB624FF00003FB6245
:1037A0004FF080033B634FF480737B634FF480637F
:1037B000BB634FF02003FB634FF400533B644FF0B7
:1037C00000037B6407F11C0340F20800C4F202000E
:1037D000194609F04BFF40F20800C4F202004FF016
:1037E000010109F0C1FF40F20800C4F202004FF0ED
:1037F00002014FF0010209F0D3FF42F20040C4F28F
:10380000010008F0A7FE07F10803184608F048FF7A
:103810004FF00003BB604FF001033B734FF0010317
:103820007B734FF460233B614FF000037B614FF0EB
:1038300006033B7607F1080342F20040C4F20100A0
:10384000194608F0CBFEFB7903F00103DBB2002B35
:103850000BD042F20040C4F201004FF00A014FF0D9
:1038600001024FF0030309F06DF8FB7903F0020346
:10387000002B0BD042F20040C4F201004FF00B01CC
:103880004FF002024FF0030309F05CF8FB7903F0FC
:103890000403002B0BD042F20040C4F201004FF0B1
:1038A0000C014FF003024FF0030309F04BF8FB79D2
:1038B00003F00803002B0BD042F20040C4F20100D9
:1038C0004FF00D014FF004024FF0030309F03AF8F6
:1038D000FB7903F01003002B0BD042F20040C4F23E
:1038E00001004FF00E014FF005024FF0030309F005
:1038F00029F8FB7903F02003002B0BD042F20040A3
:10390000C4F201004FF00F014FF006024FF0030325
:1039100009F018F842F20040C4F201004FF0010132
:1039200008F0FCFE42F20040C4F201004FF0010139
:1039300008F0D8FE42F20040C4F2010008F030FF67
:1039400042F20040C4F2010008F03AFF0346002BA7
:10395000F6D142F20040C4F2010008F04DFF42F2FD
:103960000040C4F2010008F057FF0346002BF6D1D7
:1039700042F20040C4F201004FF0000108F068FF7D
:1039800007F15007BD4680BD80B500AF40F208008A
:10399000C4F202004FF0010109F0E6FE42F20040DD
:1039A000C4F201004FF0010108F052FFBD4680BD96
:1039B00080B500AF42F20040C4F201004FF00001B8
:1039C00008F046FF40F20800C4F202004FF0000188
:1039D00009F0CAFEBD4680BD80B500AF4FF0804003
:1039E0004FF002010DF0C6FE0346002B00F00281ED
:1039F0004FF080404FF002010DF0EEFE40F2021356
:103A0000C2F200031B78002B59D040F20013C2F21F
:103A100000031B785BB203F10103032B60D801A202
:103A200052F823F0573A0008793A0008353A00086E
:103A30009D3A000840F60040C4F201004FF04001FA
:103A40000AF0D0F940F60040C4F201004FF08001C6
:103A50000AF0D6F945E040F60040C4F201004FF00C
:103A600040010AF0CDF940F60040C4F201004FF0E9
:103A700080010AF0B7F934E040F60040C4F20100DA
:103A80004FF040010AF0BCF940F60040C4F20100DA
:103A90004FF080010AF0B4F900BF22E040F6004088
:103AA000C4F201004FF040010AF09CF940F60040DA
:103AB000C4F201004FF080010AF094F911E040F6E1
:103AC0000040C4F201004FF040010AF099F940F6BD
:103AD0000040C4F201004FF080010AF091F900E0CB
:103AE00000BF40F20313C2F200031B78002B5AD030
:103AF00040F20113C2F200031B785BB203F1010331
:103B0000032B61D801A252F823F000BF3F3B00080D
:103B1000613B00081D3B0008853B000840F6004063
:103B2000C4F201004FF480710AF05CF940F60040E5
:103B3000C4F201004FF400710AF062F945E040F66A
:103B40000040C4F201004FF480710AF059F940F6C8
:103B50000040C4F201004FF400710AF043F934E070
:103B600040F60040C4F201004FF480710AF048F9B9
:103B700040F60040C4F201004FF400710AF040F931
:103B800000BF22E040F60040C4F201004FF4807113
:103B90000AF028F940F60040C4F201004FF4007129
:103BA0000AF020F911E040F60040C4F201004FF4A1
:103BB00080710AF025F940F60040C4F201004FF48C
:103BC00000710AF01DF900E000BF40F20213C2F2DA
:103BD00000031B784FF0804019460DF071FC40F255
:103BE0000313C2F200031B784FF0804019460DF01A
:103BF00075FCA3E04FF080404FF004010DF0BAFDDA
:103C00000346002B3DD04FF080404FF004010DF0F3
:103C1000E3FD40F20013C2F200031B785BB2B3F184
:103C2000FF3FC0F28480012B02DD022B18D085E01B
:103C300040F20213C2F200031B78632B79D840F6DE
:103C40000040C4F201004FF040010AF0D9F840F6FC
:103C50000040C4F201004FF080010AF0D1F86DE09D
:103C600040F60040C4F201004FF040010AF0BAF8FB
:103C700040F60040C4F201004FF080010AF0B2F8B3
:103C80005CE04FF080404FF008010DF073FD0346FB
:103C9000002B3CD04FF080404FF008010DF09CFD10
:103CA00040F20113C2F200031B785BB2B3F1FF3F95
:103CB00041DB012B02DD022B18D03FE040F2031361
:103CC000C2F200031B78632B37D840F60040C4F2E1
:103CD00001004FF480710AF093F840F60040C4F2FE
:103CE00001004FF400710AF08BF827E040F6004025
:103CF000C4F201004FF480710AF074F840F60040FD
:103D0000C4F201004FF400710AF06CF816E04FF0B5
:103D100080404FF010010DF02DFD0346002B0DD01B
:103D20004FF080404FF010010DF056FD06E000BF4F
:103D300004E000BF02E000BF00E000BFBD4680BD60
:103D400080B58AB000AF07F12403184609F0DCFF04
:103D50004FF47073BB844FF0030387F826304FF0A5
:103D6000100387F8273007F1240340F60040C4F21F
:103D70000100194609F0E8FE40F60040C4F20100D7
:103D80004FF040010AF03CF840F60040C4F2010058
:103D90004FF080010AF034F840F60040C4F2010010
:103DA0004FF480710AF02CF840F60040C4F2010094
:103DB0004FF400710AF024F84FF001004FF00101B8
:103DC0000BF00CFA07F1200318460AF0F3FA4FF053
:103DD0001C0387F820304FF00B0387F821304FF099
:103DE0000B0387F822304FF0010387F8233007F1E7
:103DF000200318460AF02CFA4FF080400BF00AFF1F
:103E000007F1140318460CF037FB4FF064033B83B3
:103E10004FF0EF03BB824FF000037B834FF00003B2
:103E2000FB824FF000033B7707F114034FF0804013
:103E300019460BF09DFF4FF080404FF0EF014FF01F
:103E400001020CF027FD07F1040318460CF032FBC9
:103E50004FF02003BB804FF00003FB804FF00003C6
:103E60003B814FF064037B814FF00003BB814FF037
:103E70000003FB814FF000033B824FF000037B8285
:103E800007F104034FF0804019460BF0B3FF4FF0E9
:103E900080404FF000010CF0A9FE07F10403184622
:103EA0000CF008FB4FF02003BB804FF00003FB80B9
:103EB0004FF000033B8140F20213C2F200031B7873
:103EC0007B814FF00003BB814FF00003FB814FF07B
:103ED00000033B824FF000037B8207F104034FF0A5
:103EE000804019460CF01AF84FF080404FF0000166
:103EF0000CF09AFE07F1040318460CF0DBFA4FF0C1
:103F00002003BB804FF00003FB804FF000033B8198
:103F100040F20313C2F200031B787B814FF00003D1
:103F2000BB814FF00003FB814FF000033B824FF059
:103F300000037B8207F104034FF0804019460CF028
:103F400095F84FF080404FF000010CF08DFE07F126
:103F5000040318460CF0AEFA4FF02003BB804FF07C
:103F60000003FB804FF000033B814FF064037B8133
:103F70004FF00003BB814FF00003FB814FF00003C3
:103F80003B824FF000037B8207F104034FF0804037
:103F900019460CF011F94FF080404FF000010CF081
:103FA00081FE4FF080404FF001010CF08FFD4FF08B
:103FB00080404FF01E014FF001020CF033FB4FF038
:103FC00080404FF000010CF0E3FA4FF080404FF0DA
:103FD0001E010DF0BDFB07F12807BD4680BD00BFE7
:103FE00080B500AF40F20213C2F200034FF00002AE
:103FF0001A7040F20313C2F200034FF000021A706D
:104000004FF080404FF001010CF0C2FABD4680BD78
:1040100080B500AF40F20213C2F200034FF000027D
:104020001A7040F20313C2F200034FF000021A703C
:104030004FF080404FF000010CF0AAFA40F600402B
:10404000C4F201004FF0400109F0DAFE40F60040F2
:10405000C4F201004FF0800109F0D2FE40F60040AA
:10406000C4F201004FF4807109F0CAFE40F600402E
:10407000C4F201004FF4007109F0C2FEBD4680BDDC
:1040800080B483B000AF44F24023C0F20F037B60E2
:104090007B68002B0CBF00220122D2B203F1FF3358
:1040A0007B60002AF4D107F10C07BD4680BC704745
:1040B00080B500AF00F03EF800F0DEF800F086F8C2
:1040C00004F0A4F840F60040C4F201004FF00101F2
:1040D00009F088FE40F60000C4F201004FF0040130
:1040E00009F080FE40F60000C4F201004FF0080124
:1040F00009F078FEFFF7C4FF03F07EFA03F0B6FA8A
:104100000FF002FC02F094FE00F0A0FF0346002B2B
:1041100003D002F06BFB01F035FF02F01BFDFFF74F
:104120000FFE00F06FFC4FF03F00FFF7D3FABD46E3
:1041300080BD00BF80B582B000AF0AF08BFC4FF4A9
:1041400080300AF0D5FC0AF015FD0346FB71FB79BF
:10415000012B31D14FF0100009F02CFC4FF0020080
:1041600009F0E4FB4FF000000AF0D0FD4FF0000032
:104170000AF010FE4FF480600AF0EAFD4FF40040B0
:104180000AF06EFE4FF480304FF480110AF058FDB3
:104190004FF001000AF07AFD4FF039000BF0D2F831
:1041A0000346002BF8D04FF002000AF07FFD0AF022
:1041B0009FFD0346082BFAD14FF03C004FF0010160
:1041C0000AF0E0FF07F10807BD4680BD80B582B068
:1041D00000AF40F60000C4F2010009F00DFC40F60B
:1041E0000040C4F2010009F007FC41F20000C4F2F3
:1041F000010009F001FC41F20040C4F2010009F0A5
:10420000FBFB4FF00C03BB804FF00303BB714FF07F
:104210001403FB7107F1040340F60000C4F201002F
:10422000194609F091FC4FF00103BB804FF00303E6
:10423000BB714FF01403FB7107F1040340F600401B
:10424000C4F20100194609F07FFC4FF08003BB80E7
:104250004FF00403FB714FF00303BB7107F104033C
:1042600040F60000C4F20100194609F06DFC07F1A8
:104270000807BD4680BD00BF80B500AF09F030FF24
:104280004FF000604FF440510AF0A2F94FF4C060C3
:1042900009F0CAFFBD4680BD80B500AF40F20040C6
:1042A000C4F200004FF002010DF064FA0346002B47
:1042B00010D040F20040C4F200004FF002010DF0B7
:1042C0008BFA40F60000C4F201004FF4807109F04F
:1042D00097FD3DE140F20040C4F200004FF00401C0
:1042E0000DF048FA0346002B00F0328140F2004006
:1042F000C4F200004FF004010DF06EFA40F2082302
:10430000C2F200031B78072B00F2DB8001A252F8F7
:1043100023F000BF354300086743000899430008B5
:10432000CB430008FD4300082F4400086144000807
:104330009344000840F60000C4F201004FF0010170
:1043400009F05EFD40F60000C4F201004FF00201EA
:1043500009F056FD40F60040C4F201004FF0200184
:1043600009F04EFDADE040F60000C4F201004FF050
:10437000010109F037FD40F60000C4F201004FF0E2
:10438000020109F03DFD40F60040C4F201004FF08B
:10439000200109F035FD94E040F60000C4F2010070
:1043A0004FF0010109F02CFD40F60000C4F20100BD
:1043B0004FF0020109F016FD40F60040C4F2010082
:1043C0004FF0200109F01CFD7BE040F60000C4F234
:1043D00001004FF0010109F005FD40F60000C4F2B4
:1043E00001004FF0020109F0FDFC40F60040C4F26C
:1043F00001004FF0200109F003FD62E040F60000EB
:10440000C4F201004FF0010109F0FAFC40F600008F
:10441000C4F201004FF0020109F0F2FC40F6004046
:10442000C4F201004FF0200109F0DCFC49E040F645
:104430000000C4F201004FF0010109F0D3FC40F686
:104440000000C4F201004FF0020109F0D9FC40F66F
:104450000040C4F201004FF0200109F0C3FC30E03D
:1044600040F60000C4F201004FF0010109F0C8FC61
:1044700040F60000C4F201004FF0020109F0B2FC66
:1044800040F60040C4F201004FF0200109F0AAFC00
:1044900017E040F60000C4F201004FF0010109F0FE
:1044A000A1FC40F60000C4F201004FF0020109F047
:1044B00099FC40F60040C4F201004FF0200109F0E1
:1044C00091FC40F60000C4F201004FF4807109F045
:1044D00089FC40F20823C2F200031B781A4640F21E
:1044E0002C23C2F2000333F8122040F20823C2F258
:1044F00000031B78194640F20C23C2F2000333F884
:1045000011309BB2C3EB02039BB240F20040C4F2F5
:10451000000019460CF0C6FF40F20823C2F2000367
:104520001B78062B07D940F20823C2F200034FF094
:1045300000021A700CE040F20823C2F200031B785C
:1045400003F10103DAB240F20823C2F200031A7049
:10455000BD4680BD80B500AF40F60000C4F200004B
:104560004FF002010DF006F90346002B10D040F683
:104570000000C4F200004FF002010DF02DF941F2ED
:104580000000C4F201004FF0400109F039FC41E1A4
:1045900040F60000C4F200004FF004010DF0EAF80C
:1045A0000346002B00F0368140F60000C4F2000004
:1045B0004FF004010DF010F940F20823C2F200039D
:1045C0001B78072B00F2DB8001A252F823F000BF1A
:1045D000F1450008234600085546000887460008B4
:1045E000B9460008EB4600081D4700084F47000881
:1045F00041F20000C4F201004FF4005109F000FC48
:1046000041F20000C4F201004FF4804109F0F8FBD0
:1046100041F20000C4F201004FF4004109F0F0FB48
:10462000ADE041F20000C4F201004FF4005109F086
:10463000D9FB41F20000C4F201004FF4804109F0BF
:10464000DFFB41F20000C4F201004FF4004109F029
:10465000D7FB94E041F20000C4F201004FF4005196
:1046600009F0CEFB41F20000C4F201004FF480419A
:1046700009F0B8FB41F20000C4F201004FF4004120
:1046800009F0BEFB7BE041F20000C4F201004FF4F0
:10469000005109F0A7FB41F20000C4F201004FF401
:1046A000804109F09FFB41F20000C4F201004FF489
:1046B000004109F0A5FB62E041F20000C4F20100F4
:1046C0004FF4005109F09CFB41F20000C4F20100DC
:1046D0004FF4804109F094FB41F20000C4F2010064
:1046E0004FF4004109F07EFB49E041F20000C4F2C2
:1046F00001004FF4005109F075FB41F20000C4F2D3
:1047000001004FF4804109F07BFB41F20000C4F24C
:1047100001004FF4004109F065FB30E041F2000078
:10472000C4F201004FF4005109F06AFB41F20000AD
:10473000C4F201004FF4804109F054FB41F2000043
:10474000C4F201004FF4004109F04CFB17E041F2C4
:104750000000C4F201004FF4005109F043FB41F2A4
:104760000000C4F201004FF4804109F03BFB41F22C
:104770000000C4F201004FF4004109F033FB41F2A4
:104780000000C4F201004FF0400109F02BFB40F2A1
:104790000823C2F200035B781A4640F22C23C2F2CF
:1047A000000302F1080233F8122040F20823C2F29B
:1047B00000035B78194640F20C23C2F2000301F1BA
:1047C000080133F811309BB2C3EB02039BB240F6F1
:1047D0000000C4F2000019460CF064FE40F2082309
:1047E000C2F200035B78062B07D940F20823C2F21D
:1047F00000034FF000025A700CE040F20823C2F2AE
:1048000000035B7803F10103DAB240F20823C2F23D
:1048100000035A70BD4680BD90B583B000AF4FF025
:1048200000037B6041F20000C4F200004FF0010180
:104830000CF08EFF40F20413C2F200031B78002B31
:1048400000F09B8040F20513C2F200031A7840F298
:104850000613C2F200031B789A4273D34FF0000391
:104860003B606BE04FF000037B6060E038687A6883
:10487000D7F800C0796840F6F063C2F200034FEA4F
:10488000CC0C614433F8113019B23C68D7F804C03D
:1048900040F22C23C2F200034FEAC404A44433F8CC
:1048A0001C301BB2C3EB010140F20513C2F200033E
:1048B0001B789C4640F20613C2F200031B78C3EB40
:1048C0000C0391FBF3F399B240F24C23C2F20003C4
:1048D0004FEAC000024423F8121038687A68D7F80B
:1048E00000C0796840F22C23C2F200034FEACC0CDE
:1048F000614433F811103C68D7F804C040F24C23EF
:10490000C2F200034FEAC404A44433F81C309BB243
:104910000B4499B240F22C23C2F200034FEAC000CC
:10492000024423F812107B6803F101037B607B686B
:10493000072B9BDD3B6803F101033B603B68012BC8
:1049400090DD0DE040F20613C2F200034FF00002CA
:104950001A7040F20413C2F200034FF000021A7002
:1049600040F20613C2F200031B7803F10103DAB22E
:1049700040F20613C2F200031A7007F10C07BD469D
:1049800090BD00BF80B582B000AF4FF000037B60E8
:1049900023E07A68796840F2E813C2F2000333F842
:1049A000111040F6F063C2F2000323F812107A6887
:1049B000796840F2E813C2F2000301F1080133F80C
:1049C000111040F6F063C2F2000302F1080223F86E
:1049D00012107B6803F101037B607B68072BD8DD35
:1049E00000F0B4FA4FF0640000F0E8FA40F204136B
:1049F000C2F200031B78002BF8D107F10807BD466F
:104A000080BD00BF80B58AB000AF40F20040C4F264
:104A100000000BF0FFF840F60000C4F200000BF0BD
:104A2000F9F841F20000C4F200000BF0F3F807F1CE
:104A30002003184609F068F940F203133B844FF055
:104A4000100387F823304FF0030387F8223007F173
:104A5000200340F60000C4F20100194609F074F882
:104A600007F12003184609F04FF94FF020033B846B
:104A70004FF0100387F823304FF0030387F82230FC
:104A800007F1200340F60040C4F20100194609F086
:104A90005BF807F12003184609F036F94EF240039F
:104AA0003B844FF0100387F823304FF0030387F85F
:104AB000223007F1200341F20000C4F20100194640
:104AC00009F042F84FF002004FF001010AF086FBB6
:104AD0004FF004004FF001010AF080FB4FF010008E
:104AE0004FF001010AF07AFB07F11C03184609F0A8
:104AF00061FC4FF01D033B774FF007037B774FF0CE
:104B00000703BB774FF00103FB7707F11C0318463F
:104B100009F09EFB07F11C03184609F04BFC4FF00F
:104B20001E033B774FF008037B774FF00803BB77FA
:104B30004FF00103FB7707F11C03184609F088FBCF
:104B400007F11C03184609F035FC4FF036033B779C
:104B50004FF009037B774FF00903BB774FF0010358
:104B6000FB7707F11C03184609F072FB07F11003ED
:104B700018460BF081FC40F6C413BB824FF047038C
:104B80003B824FF00003FB824FF000037B824FF02B
:104B900000033B7607F1100340F20040C4F200002E
:104BA00019460BF0E5F840F20040C4F200004FF067
:104BB00047014FF001020BF06DFE3B4618460BF02B
:104BC00079FC4FF020033B804FF000037B8040F2E4
:104BD000DC53FB804FF000033B814FF000037B81EF
:104BE0004FF00003BB814FF00003FB813B4640F2D6
:104BF0000040C4F2000019460BF0FCF840F20040FF
:104C0000C4F200004FF000010BF0F0FF3B461846E5
:104C10000BF050FC4FF020033B804FF000037B80F3
:104C20004FF00003BB8040F6C413FB804FF000033D
:104C30003B814FF000037B814FF00003BB814FF0BD
:104C40000003FB813B4640F20040C4F200001946DD
:104C50000BF064F940F20040C4F200004FF0000194
:104C60000BF0E2FF40F20040C4F200004FF00101FF
:104C70000BF02CFF40F20040C4F200004FF00601A0
:104C80004FF001020BF0CEFC40F20040C4F20000F5
:104C90004FF01E010CF05CFD07F1100318460BF0FD
:104CA000EBFB40F6C413BB824FF047033B824FF04F
:104CB0000003FB824FF000037B824FF000033B7642
:104CC00007F1100340F60000C4F2000019460BF093
:104CD0004FF840F60000C4F200004FF047014FF0DB
:104CE00001020BF0D7FD3B4618460BF0E3FB4FF0FB
:104CF00020033B804FF000037B804FF00003BB801C
:104D000040F2DC53FB804FF000033B814FF0000387
:104D10007B814FF00003BB814FF00003FB813B46DA
:104D200040F60000C4F2000019460BF063F840F6AC
:104D30000000C4F200004FF000010BF057FF3B46AB
:104D400018460BF0B7FB4FF020033B804FF00003F9
:104D50007B804FF00003BB8040F6C413FB804FF014
:104D600000033B814FF000037B814FF00003BB81C8
:104D70004FF00003FB813B4640F60000C4F2000008
:104D800019460BF0CBF840F60000C4F200004FF0DB
:104D900000010BF049FF40F60000C4F200004FF0A4
:104DA00001010BF093FE40F60000C4F200004FF04A
:104DB00006014FF001020BF035FC40F60000C4F292
:104DC00000004FF01E010CF0C3FC07F11003184661
:104DD0000BF052FB4FF04803BB8244F61F633B824B
:104DE0004FF00003FB824FF000037B824FF0000383
:104DF0003B7607F1100341F20000C4F200001946AF
:104E00000AF0B6FF41F20000C4F2000044F61F6150
:104E10004FF001020BF03EFD41F20000C4F2000031
:104E20004FF001010CF094FC41F20000C4F20000CC
:104E30004FF001014FF001020BF0F4FB40F2004093
:104E4000C4F200004FF000010BF0A2FB40F600009E
:104E5000C4F200004FF000010BF09AFB41F2000099
:104E6000C4F200004FF000010BF092FB00F08AF852
:104E700040F20823C2F200034FF000021A7040F221
:104E80000823C2F200034FF000025A704FF00003F3
:104E90007B6253E07A6A40F22C23C2F2000340F2B4
:104EA000DC5123F812107A6A40F22C23C2F200037C
:104EB00002F1080240F2DC5123F812107A6A40F63F
:104EC000F063C2F2000340F2DC5123F812107A6A58
:104ED00040F6F063C2F2000302F1080240F2DC5136
:104EE00023F812107A6A40F2E813C2F2000340F28B
:104EF000DC5123F812107A6A40F2E813C2F2000380
:104F000002F1080240F2DC5123F812107A6A40F2F2
:104F10000C23C2F200034FF0000123F812107A6A4A
:104F200040F20C23C2F2000302F108024FF000012C
:104F300023F812107B6A03F101037B627B6A072B63
:104F4000A8DD07F12807BD4680BD00BF80B500AFD2
:104F500040F20040C4F200004FF001010BF018FBDA
:104F600040F60000C4F200004FF001010BF010FB0E
:104F700041F20000C4F200004FF001010BF008FB09
:104F8000BD4680BD80B500AF40F20040C4F20000D5
:104F90004FF000010BF0FCFA40F60000C4F20000F4
:104FA0004FF000010BF0F4FA41F20000C4F20000EF
:104FB0004FF000010BF0ECFABD4680BD80B485B027
:104FC00000AF0346FB71FB79002B2DD14FF000039E
:104FD000BB6025E04FF00003FB601AE0B868FA6898
:104FE000D7F808C0F96840F6F063C2F200034FEA50
:104FF000CC0C614433F8111040F22C23C2F20003B0
:105000004FEAC000024423F81210FB6803F10103C9
:10501000FB60FB68072BE1DDBB6803F10103BB60AC
:10502000BB68012BD6DD0CE040F20513C2F2000391
:10503000FA791A7040F20413C2F200034FF0010231
:105040001A7007F11407BD4680BC704780B582B066
:1050500000AF4FF480604FF001010AF067F84FF0A5
:1050600001004FF001010AF061F84FF4C06009F04F
:10507000DBF807F10403184609F09CF94FF03103FF
:105080003B714FF003037B714FF00303BB714FF093
:105090000103FB7107F10403184609F0D9F803F086
:1050A000E1F903461A4640F20003C2F200031A7007
:1050B00040F20003C2F200031B782A2B0CD141F608
:1050C0001050C2F2000003F069FD03461A4640F298
:1050D0000003C2F200031A7040F20003C2F20003A0
:1050E0001B782A2B11D141F61053C2F20003B3F8FA
:1050F0004C304FEA0343184604F096F903461A462B
:1051000040F20003C2F200031A7040F20003C2F240
:1051100000031B782A2B0AD14FF4006004F0B0F88A
:1051200003461A4640F20003C2F200031A7040F22E
:105130000003C2F200031B782A2B0AD14FF00000B3
:1051400004F050F903461A4640F20003C2F200038D
:105150001A7040F20003C2F200031B782A2B04D11C
:1051600000F060FC4FF0010301E04FF0000318462F
:1051700007F10807BD4680BD80B584B000AF7860F8
:105180004FF00003BB604FF00003FB6040F20003F0
:10519000C2F200031B782A2B68D1786841F660516F
:1051A000C2F200014FF4007204F07AF903461A4685
:1051B00040F20003C2F200031A704FF00003BB601C
:1051C00051E0FA68B96841F66053C2F2000353F83F
:1051D000213003F0FF0141F21053C2F2000343F803
:1051E0002210FB6803F10102B96841F66053C2F274
:1051F000000353F8213003F47F434FEA132141F2B7
:105200001053C2F2000343F82210FB6803F10202BC
:10521000B96841F66053C2F2000353F8213003F439
:105220007F034FEA134141F21053C2F2000343F8E7
:105230002210FB6803F10302B96841F66053C2F221
:10524000000353F821304FEA136141F21053C2F2C8
:10525000000343F82210FB6803F10403FB60BB6802
:1052600003F10103BB60BB687F2BAADD07F11007C8
:10527000BD4680BD80B584B000AF78604FF00003BC
:10528000BB604FF00003FB6040F20003C2F200037A
:105290001B782A2B53D14FF00003BB603CE0BA6867
:1052A000FB6803F1030141F21053C2F2000353F80B
:1052B00021304FEA0361FB6803F1020041F2105311
:1052C000C2F2000353F820304FEA034341EA0301DE
:1052D000FB6803F1010041F21053C2F2000353F8DE
:1052E00020304FEA032341EA0301F86841F21053EA
:1052F000C2F2000353F8203041EA030140F6107374
:10530000C2F2000343F82210FB6803F10403FB60C0
:10531000BB6803F10103BB60BB687F2BBFDD78680E
:1053200040F61071C2F200014FF4007204F090FDDB
:1053300003461A4640F20003C2F200031A7007F156
:105340001007BD4680BD00BF80B485B000AF786057
:105350000B46FB704FF00003FB817B681B782D2B05
:1053600040F08980FB78A3F10203042B7ED801A2D0
:1053700052F823F05154000829540008F55300084E
:10538000C553000889530008FB78A3F105027B6828
:1053900013441B781A464FEA4212C3EB02024FEA4B
:1053A000820213441A464FEA82011A460B461344FE
:1053B0004FEA03139AB2FB8913449BB2A3F5A643A9
:1053C0009BB2FB81FB78A3F104027B6813441B783A
:1053D0001A464FEA4212C3EB02024FEA820213441A
:1053E0004FEAC3039AB2FB8913449BB203F5894386
:1053F0009BB2FB81FB78A3F103027B6813441B780B
:105400001A464FEA820213441A464FEA82011A46AC
:105410000B4613444FEA83039AB2FB8913449BB2B1
:10542000A3F596539BB2FB81FB78A3F102027B6844
:1054300013441B781A464FEA820213444FEA43038F
:105440009AB2FB8913449BB2A3F5F0739BB2FB8124
:10545000FB7803F1FF327B6813441B781A46FB8903
:1054600013449BB2A3F130039BB2FB81FB89C3F1D0
:105470000003FB8112E17B681B782B2B40F08780B7
:10548000FB78A3F10203042B00F2078101A252F87A
:1054900023F000BF71550008495500081555000854
:1054A000E5540008A9540008FB78A3F105027B68C5
:1054B00013441B781A464FEA4212C3EB02024FEA2A
:1054C000820213441A464FEA82011A460B461344DD
:1054D0004FEA03139AB2FB8913449BB2A3F5A64388
:1054E0009BB2FB81FB78A3F104027B6813441B7819
:1054F0001A464FEA4212C3EB02024FEA82021344F9
:105500004FEAC3039AB2FB8913449BB203F5894364
:105510009BB2FB81FB78A3F103027B6813441B78E9
:105520001A464FEA820213441A464FEA82011A468B
:105530000B4613444FEA83039AB2FB8913449BB290
:10554000A3F596539BB2FB81FB78A3F102027B6823
:1055500013441B781A464FEA820213444FEA43036E
:105560009AB2FB8913449BB2A3F5F0739BB2FB8103
:10557000FB7803F1FF327B6813441B781A46FB89E2
:1055800013449BB2A3F130039BB2FB8186E0FB780E
:1055900003F1FF33042B00F2818001A252F823F0C3
:1055A0007D5600085556000821560008F1550008A0
:1055B000B5550008FB78A3F105027B6813441B78FE
:1055C0001A464FEA4212C3EB02024FEA8202134428
:1055D0001A464FEA82011A460B4613444FEA031358
:1055E0009AB2FB8913449BB2A3F5A6439BB2FB81FD
:1055F000FB78A3F104027B6813441B781A464FEA38
:105600004212C3EB02024FEA820213444FEAC30381
:105610009AB2FB8913449BB203F589439BB2FB8189
:10562000FB78A3F103027B6813441B781A464FEA08
:10563000820213441A464FEA82011A460B4613446B
:105640004FEA83039AB2FB8913449BB2A3F59653A6
:105650009BB2FB81FB78A3F102027B6813441B78A9
:105660001A464FEA820213444FEA43039AB2FB8977
:1056700013449BB2A3F5F0739BB2FB81FB7803F15B
:10568000FF327B6813441B781A46FB8913449BB294
:10569000A3F130039BB2FB8100E000BFFB891BB28A
:1056A000184607F11407BD4680BC704780B487B028
:1056B00000AFF8600B467A60FB724FF00003FB7599
:1056C000FB68002B80F2C380FA7D7B6813444FF0A7
:1056D0002D021A70FB68C3F10003FB60FB7D03F130
:1056E0000103FB75FB7AA3F10203032B00F2938104
:1056F00001A050F823F000BF11580008B957000866
:105700006157000809570008FA7D7B6802EB030126
:10571000FA6848F6AD33C6F6DB0383FB02034FEAB3
:1057200023304FEAE273C3EB000342F2107000FB38
:1057300003F3C3EB020344F6D352C1F2620282FBCD
:1057400003024FEAA2124FEAE373C3EB0203DBB298
:1057500003F13003DBB20B70FB7D03F10103FB753A
:10576000FA7D7B6802EB0301FA6844F6D353C1F279
:10577000620383FB02034FEAA3104FEAE273C3EB19
:1057800000034FF47A7000FB03F3C3EB020348F20B
:105790001F52C5F2EB1282FB03024FEA62124FEA7C
:1057A000E373C3EB0203DBB203F13003DBB20B7034
:1057B000FB7D03F10103FB75FA7D7B6802EB0301BE
:1057C000FA6848F21F53C5F2EB1383FB02034FEA5A
:1057D00063104FEAE273C3EB00034FF0640000FB79
:1057E00003F3C3EB020346F26762C6F2666282FB12
:1057F00003024FEAA2024FEAE373C3EB0203DBB2F8
:1058000003F13003DBB20B70FB7D03F10103FB7589
:10581000FA7D7B6802EB0300F96846F26763C6F223
:10582000666383FB01234FEAA3024FEAE173C3EBF4
:10583000020213464FEA830313444FEA4303C3EBC8
:105840000102D3B203F13003DBB20370E4E0FB7A70
:1058500003F1FF33042B00F2DF8001A050F823F0A6
:10586000D95900088159000829590008D158000861
:1058700075580008FA7D7B6802EB0300FA684BF26A
:105880008953C1F2F84383FB02134FEA63314FEAB5
:10589000E273C3EB010348F2A061C0F2010101FB16
:1058A00003F3C3EB020348F6AD32C6F6DB0282FB1C
:1058B00003124FEA22324FEAE373C3EB0203DBB277
:1058C00003F13003DBB20370FB7D03F10103FB75D1
:1058D000FA7D7B6802EB0301FA6848F6AD33C6F641
:1058E000DB0383FB02034FEA23304FEAE273C3EB8F
:1058F000000342F2107000FB03F3C3EB020344F613
:10590000D352C1F2620282FB03024FEAA2124FEAB3
:10591000E373C3EB0203DBB203F13003DBB20B70C2
:10592000FB7D03F10103FB75FA7D7B6802EB03014C
:10593000FA6844F6D353C1F2620383FB02034FEAD1
:10594000A3104FEAE273C3EB00034FF47A7000FB3D
:1059500003F3C3EB020348F21F52C5F2EB1282FBC2
:1059600003024FEA62124FEAE373C3EB0203DBB2B6
:1059700003F13003DBB20B70FB7D03F10103FB7518
:10598000FA7D7B6802EB0301FA6848F21F53C5F207
:10599000EB1383FB02034FEA63104FEAE273C3EB9E
:1059A00000034FF0640000FB03F3C3EB020346F275
:1059B0006762C6F2666282FB03024FEAA2024FEA06
:1059C000E373C3EB0203DBB203F13003DBB20B7012
:1059D000FB7D03F10103FB75FA7D7B6802EB03009D
:1059E000F96846F26763C6F2666383FB01234FEAF8
:1059F000A3024FEAE173C3EB020213464FEA8303AB
:105A000013444FEA4303C3EB0102D3B203F1300363
:105A1000DBB2037000E000BF07F11C07BD4680BC8D
:105A2000704700BF80B582B000AF4FF00003FB713C
:105A30004FF00000FFF7A0FB4FF000033B6018E0C1
:105A40003B6803F1360241F21053C2F2000353F8EF
:105A50002220396845F6B443C0F601035B5C9A42E4
:105A600003D1FB7903F10103FB713B6803F10103EF
:105A70003B603B68042BE3DDFB79052B2FD041F223
:105A80001053C2F20003D3F8182741F21053C2F2A8
:105A90000003D3F81C374FEA03231A4441F2105392
:105AA000C2F20003D3F820374FEA03431A4441F20D
:105AB0001053C2F20003D3F824374FEA03631A44A9
:105AC00040F20813C2F200031A6040F20813C2F257
:105AD00000031B684FEA43231846FFF74DFB41F2D2
:105AE0001053C2F200031A6F41F21053C2F20003C6
:105AF0005B6F4FEA03231A4441F21053C2F20003D2
:105B00009B6F4FEA03431A4441F21053C2F2000361
:105B1000DB6F4FEA03631A4441F21053C2F20003F1
:105B2000996B41F21053C2F20003DB6B4FEA03237F
:105B30000B441A4440F20C13C2F200031A6041F203
:105B40001053C2F200039A6D41F21053C2F20003E7
:105B5000DB6D4FEA03231A4441F21053C2F20003F3
:105B60001B6C03FB02F240F20C13C2F200031B6831
:105B70001A4440F21013C2F200031A6040F21013EC
:105B8000C2F200031B6803F1200240F21413C2F2B8
:105B900000031A6041F21053C2F200035B6BDAB2E9
:105BA00040F21813C2F200031A7007F10807BD464D
:105BB00080BD00BF80B586B000AFF860B9607A6084
:105BC0003B604FF00003FB824FF000033B8224E177
:105BD0003A8AFB6813444FEA43231846FFF7CCFA8E
:105BE0004FF000037B8210E17B8A4FEA431241F2BF
:105BF0001053C2F2000353F82230202B40F20181EF
:105C00007B8A4FEA431241F21053C2F2000353F869
:105C10002230E52B00F0F5807B8A4FEA830303F105
:105C200001034FEAC30241F21053C2F2000353F8DA
:105C30002220BB681B789A4240F0E3807B8A4FEABF
:105C4000431303F1090241F21053C2F2000353F867
:105C50002220BB6803F101031B789A4240F0D180F7
:105C60007B8A4FEA431303F10A0241F21053C2F256
:105C7000000353F82220BB6803F102031B789A4209
:105C800040F0BF804FF00003BB8217E0FB8A4FEA71
:105C9000C3027B6802EB0301BA8A7B8A4FEA431096
:105CA000BB8A184441F21053C2F2000353F820306B
:105CB000DBB28B54BB8A03F10103BB82BB8A072B87
:105CC000E4D9FB8A4FEA83023B681A447B8A4FEA95
:105CD000431303F11A0141F21053C2F2000353F8C7
:105CE00021107B8A4FEA431303F11B0041F210534A
:105CF000C2F2000353F820304FEA03230B44A3F110
:105D0000020140F21813C2F200031B7803FB01F1F9
:105D100040F21413C2F200031B680B441360FB8AA9
:105D20004FEA83023B6A13444FF000021A60FB8A79
:105D30004FEA83023B6A1A44FB8A4FEA83013B6ABB
:105D40000B4419687B8A4FEA431303F11C0041F2AC
:105D50001053C2F2000353F820300B441360FB8A47
:105D60004FEA83023B6A1A44FB8A4FEA83013B6A8B
:105D70000B4419687B8A4FEA431303F11D0041F27B
:105D80001053C2F2000353F820304FEA03230B44B0
:105D90001360FB8A4FEA83023B6A1A44FB8A4FEA8C
:105DA00083013B6A0B4419687B8A4FEA431303F172
:105DB0001E0041F21053C2F2000353F820304FEAA4
:105DC00003430B441360FB8A4FEA83023B6A1A4485
:105DD000FB8A4FEA83013B6A0B4419687B8A4FEACE
:105DE000431303F11F0041F21053C2F2000353F8B2
:105DF00020304FEA03630B441360FB8A03F1010375
:105E0000FB827B8A03F101037B827B8A0F2B7FF667
:105E1000EBAE3B8A03F101033B823B8A0F2B7FF6FB
:105E2000D7AEFB8A184607F11807BD4680BD00BFF4
:105E300080B588B000AF78604FF00003BB614FF0D1
:105E40000003FB614FF00003FB6090E040F2101391
:105E5000C2F200031A68FB6813444FEA4323184652
:105E6000FFF78AF94FF000033B6179E03B694FEAA5
:105E7000431241F21053C2F2000353F82230202B98
:105E800067D93B694FEA431241F21053C2F2000353
:105E900053F82230E52B5CD03B694FEA431303F102
:105EA0000B0241F21053C2F2000353F8223003F008
:105EB00010034FEA1313002B4BD04FF000037B610C
:105EC00018E03B694FEA43127B691A4441F21053D0
:105ED000C2F2000353F8222079697B680B441B78D7
:105EE0009A4203D1BB6903F10103BB617B6903F1F2
:105EF00001037B617B69052BE3DDBB69052B28DD95
:105F00003B694FEA431303F11A0241F21053C2F204
:105F1000000353F822203B694FEA431303F11B01AE
:105F200041F21053C2F2000353F821304FEA032329
:105F30001344A3F1020240F21813C2F200031B78CB
:105F400003FB02F240F21413C2F200031B68134475
:105F5000FB614FF00003BB613B6903F101033B614F
:105F60003B690F2B82DDFB6803F10103FB60FB68DB
:105F70001F2B7FF76BAFFB69184607F12007BD4663
:105F800080BD00BF80B582B002AF45F6BC40C0F610
:105F90000100FFF74DFF024640F21C13C2F200035E
:105FA0001A6040F21C13C2F200031A6842F2BC539A
:105FB000C2F200030093104645F6C441C0F6010149
:105FC00042F26032C2F2000242F2F043C2F2000337
:105FD000FFF7F0FD0346DAB242F2B853C2F2000313
:105FE0001A70BD4680BD00BF80B588B000AF0246C4
:105FF0000B46FA71BB71FA7942F2BC53C2F200034C
:1060000053F82230BB60FA7942F2F043C2F2000347
:1060100053F82230FB60BB684FEA53233B61BB68F7
:106020004FEAC3534FEAD35303F1FF33FB61BB790C
:10603000002B00F0858045F6C840C0F6010001F055
:106040002DFF45F6CC40C0F6010001F027FF45F6D4
:10605000F040C0F6010001F021FF45F6CC40C0F64B
:10606000010001F01BFF45F61450C0F6010001F0DD
:1060700015FFFB7918464FF0030101F0CBFC45F604
:106080002450C0F6010001F009FF45F62850C0F683
:10609000010001F003FF42F26033C2F20003FA791B
:1060A0004FEAC202134418464FF0080101F072FF94
:1060B00045F62450C0F6010001F0F0FE45F63C50D4
:1060C000C0F6010001F0EAFEFA7942F2BC53C2F2D6
:1060D000000353F8223018464FF0080101F09AFCF3
:1060E00045F64C50C0F6010001F0D8FE45F6585078
:1060F000C0F6010001F0D2FEFA7942F2F043C2F29A
:10610000000353F8223018464FF0080101F082FCDA
:1061100045F62450C0F6010001F0C0FE45F6CC4023
:10612000C0F6010001F0BAFE45F66850C0F6010065
:1061300001F0B4FE45F6CC40C0F6010001F0AEFE21
:106140004FF000037B6123E07A69FB6813444FEA58
:1061500043231846FFF710F84FF00003BB610EE031
:10616000BA6941F21053C2F2000353F82230DBB295
:10617000184601F02BFEBB6903F10103BB61BA694C
:1061800040F2FF139A42EBD97B6903F101037B6173
:106190007A693B699A42D7D3FA683B6913444FEA5C
:1061A00043231846FEF7E8FF4FF00003BB610EE003
:1061B000BA6941F21053C2F2000353F82230DBB245
:1061C000184601F003FEBB6903F10103BB61BA6924
:1061D000FB699A42ECD9BB79002B11D045F6785077
:1061E000C0F6010001F05AFE45F69C50C0F60100D1
:1061F00001F054FE45F6AC50C0F6010001F04EFE31
:1062000007F12007BD4680BD80B588B000AF0246CB
:106210000B46FA71BB71FA7942F2BC53C2F2000329
:1062200053F82230BB60FA7942F2F043C2F2000325
:1062300053F82230FB60BB684FEA53233B61BB68D5
:106240004FEAC3534FEAD35303F1FF33FB61BB79EA
:10625000002B00F0858045F6C840C0F6010000F034
:1062600067FE45F6CC40C0F6010000F061FE45F641
:10627000F040C0F6010000F05BFE45F6CC40C0F6F1
:10628000010000F055FE45F61450C0F6010000F084
:106290004FFEFB7918464FF0030100F0D1FF45F6A1
:1062A0002450C0F6010000F043FE45F62850C0F629
:1062B000010000F03DFE42F26033C2F20003FA79C1
:1062C0004FEAC202134418464FF0080100F04EFE98
:1062D00045F62450C0F6010000F02AFE45F63C5079
:1062E000C0F6010000F024FEFA7942F2BC53C2F27B
:1062F000000353F8223018464FF0080100F0A0FFC9
:1063000045F64C50C0F6010000F012FE45F658501C
:10631000C0F6010000F00CFEFA7942F2F043C2F23E
:10632000000353F8223018464FF0080100F088FFB0
:1063300045F62450C0F6010000F0FAFD45F6CC40C9
:10634000C0F6010000F0F4FD45F66850C0F601000B
:1063500000F0EEFD45F6CC40C0F6010000F0E8FD8F
:106360004FF000037B6123E07A69FB6813444FEA36
:1063700043231846FEF700FF4FF00003BB610EE019
:10638000BA6941F21053C2F2000353F82230DBB273
:10639000184600F0B1FDBB6903F10103BB61BA69A6
:1063A00040F2FF139A42EBD97B6903F101037B6151
:1063B0007A693B699A42D7D3FA683B6913444FEA3A
:1063C00043231846FEF7D8FE4FF00003BB610EE0F2
:1063D000BA6941F21053C2F2000353F82230DBB223
:1063E000184600F089FDBB6903F10103BB61BA697E
:1063F000FB699A42ECD9BB79002B11D045F6785055
:10640000C0F6010000F094FD45F69C50C0F6010076
:1064100000F08EFD45F6AC50C0F6010000F088FD9E
:1064200007F12007BD4680BD80B584B000AF0346AC
:106430003960FB714FF000037B813B689BB24FEAF0
:10644000C3534FEAD3537B81FA7942F2F043C2F24D
:10645000000353F822203B684FEA53231344FB60A8
:10646000FB684FEA43231846FEF786FE7A8941F21D
:106470001053C2F2000353F82230DBB2184607F182
:106480001007BD4680BD00BF80B586B000AFB960C3
:1064900013460246FA73FB714FF000037B82FA7BCE
:1064A00042F2BC53C2F2000353F82220BB689A4266
:1064B00026D3BB689BB24FEAC3534FEAD3537B82C8
:1064C000FA7B42F2F043C2F2000353F82220BB6889
:1064D0004FEA532313447B617B694FEA43231846F9
:1064E000FEF74AFE7A8AF97941F21053C2F20003AC
:1064F00043F822107B694FEA43231846FEF7BAFEA1
:1065000007F11807BD4680BD80B588B000AFB960FF
:106510007A600246FA737B804FF00003FB824FF0F3
:1065200000033B834FF000037B834FF000033B836A
:1065300092E0BB689AB23B8B13449BB24FEAC353C1
:106540004FEAD353FB82FA7B42F2F043C2F20003DC
:1065500053F82220398BBB680B444FEA5323134472
:10656000FB61FA8A7B881344B3F5007F50DDFA8A19
:106570007B8813449BB2A3F500737B83FB694FEACE
:1065800043231846FEF7F8FD4FF000033B8311E06C
:106590003A8B7B681A44F98A3B8B194441F21053B9
:1065A000C2F2000353F82130DBB213703B8B03F1CE
:1065B00001033B833A8B79887B8BC3EB01039A42BF
:1065C000E6DBFB6903F101034FEA43231846FEF7BC
:1065D000D3FD4FF000033B8315E07A887B8BC3EB40
:1065E00002023B8B13441A467B681A44398B41F2F2
:1065F0001053C2F2000353F82130DBB213703B8B0F
:1066000003F101033B833A8B7B8B9A42E5D31FE076
:10661000FB694FEA43231846FEF7AEFD4FF0000337
:106620003B8311E03A8B7B681A44F98A3B8B19440F
:1066300041F21053C2F2000353F82130DBB2137061
:106640003B8B03F101033B833A8B7B889A42E9D36E
:106650003B8B03F101033B833A8B7B889A42FFF427
:1066600068AF07F12007BD4680BD00BF80B588B088
:1066700000AFB9607A600246FA737B804FF0000386
:10668000FB824FF000033B834FF000037B837A884B
:10669000BB681A44F97B42F2BC53C2F2000353F8C0
:1066A00021309A4200F29E80BB689BB24FEAC353EE
:1066B0004FEAD353FB82FA7B42F2F043C2F200036B
:1066C00053F82220BB684FEA53231344FB61FA8A34
:1066D0007B881344B3F5007F5EDDFA8A7B88134420
:1066E0009BB2A3F500737B83FB694FEA43231846F3
:1066F000FEF742FD4FF000033B8311E0FA8A3B8B2B
:106700001A44398B7B680B441B78194641F21053AD
:10671000C2F2000343F822103B8B03F101033B83D9
:106720003A8B79887B8BC3EB01039A42E6DBFB69EA
:106730004FEA43231846FEF79DFDFB6903F1010371
:106740004FEA43231846FEF717FD4FF000033B8343
:1067500015E03A8B79887B8BC3EB01013B8B0B44B3
:1067600019467B680B441B78194641F21053C2F25C
:10677000000343F822103B8B03F101033B833A8B68
:106780007B8B9A42E5D3FB6903F101034FEA432374
:106790001846FEF76FFD25E0FB694FEA43231846D4
:1067A000FEF7EAFC4FF000033B8311E0FA8A3B8BD3
:1067B0001A44398B7B680B441B78194641F21053FD
:1067C000C2F2000343F822103B8B03F101033B8329
:1067D0003A8B7B889A42E9D3FB694FEA43231846F8
:1067E000FEF748FD07F12007BD4680BD80B582B0A9
:1067F00002AF45F6D050C0F60100FFF719FB024684
:1068000040F22013C2F200031A6040F22013C2F2D9
:1068100000031A6842F6E003C2F200030093104638
:1068200045F6D851C0F6010142F28462C2F200027C
:1068300042F61403C2F20003FFF7BCF90346DAB2D2
:1068400042F6DC03C2F200031A70BD4680BD00BFF1
:1068500080B588B000AF0346FB71FA7942F6E003D9
:10686000C2F2000353F82230BB60FA7942F61403F7
:10687000C2F2000353F82230FB6040F60040C4F23D
:1068800000004FF0010109F083FEBB684FEA53237B
:106890003B61BB684FEAC3534FEAD35303F1FF3365
:1068A000FB61FB684FEA43231846FEF765FC4FF097
:1068B0000003BB610BE0BA6942F6A813C2F2000301
:1068C0006FF07F019954BB6903F10103BB61BB69A0
:1068D000392BF0D94FF03A03BB6111E0BA69B969BD
:1068E00041F21053C2F2000353F82130D9B242F6FC
:1068F000A813C2F200039954BB6903F10103BB6101
:10690000BA6940F2FF139A42E8D940F22413C2F266
:1069100000034FF001021A704FF001037B617EE02B
:106920007A69FB6813444FEA43231846FEF724FCB8
:1069300040F22413C2F200031B78022B31D14FF036
:106940000003BB6111E0BA69B96941F21053C2F2A8
:10695000000353F82130D9B242F6A813C2F2000363
:106960009954BB6903F10103BB61BA6940F2FF139B
:106970009A42E8D906E040F22A13C2F200034FF02F
:1069800001021A7040F22413C2F200031B78022B9A
:10699000F1D040F22A13C2F200034FF000021A7045
:1069A00039E040F22413C2F200031B78012B32D1EC
:1069B0004FF00003BB6113E0B969BA6941F21053AB
:1069C000C2F2000353F82230DAB242F6A813C2F240
:1069D00000030B4483F80022BB6903F10103BB6190
:1069E000BA6940F2FF139A42E6D906E040F22A1350
:1069F000C2F200034FF001021A7040F22413C2F2F7
:106A000000031B78012BF1D040F22A13C2F20003DD
:106A10004FF000021A707B6903F101037B617A6910
:106A20003B699A42FFF47CAFFA683B6913444FEA32
:106A300043231846FEF7A0FBFB69BB610CE0BA6973
:106A400041F21053C2F200034FF0800143F82210CC
:106A5000BB6903F10103BB61BA6940F2FF139A42BB
:106A6000EDD940F22413C2F200031B78022B2AD185
:106A70004FF00103BB6111E0BA69B96941F21053EB
:106A8000C2F2000353F82130D9B242F6A813C2F281
:106A900000039954BB6903F10103BB61BA6940F279
:106AA000FF139A42E8D906E040F22A13C2F200032B
:106AB0004FF001021A7040F22413C2F200031B7857
:106AC000022BF1D032E040F22413C2F200031B7813
:106AD000012B2BD14FF00003BB6113E0B969BA69F8
:106AE00041F21053C2F2000353F82230DAB242F6F8
:106AF000A813C2F200030B4483F80022BB6903F120
:106B00000103BB61BA6940F2FF139A42E6D906E07D
:106B100040F22A13C2F200034FF001021A7040F251
:106B20002413C2F200031B78012BF1D040F224138E
:106B3000C2F200034FF000021A7040F60040C4F2A7
:106B400000004FF0000109F023FD07F12007BD46CA
:106B500080BD00BF80B58AB000AF40F60040C4F2EF
:106B6000000009F057F807F12403184607F0CCF8A5
:106B70004FF01003BB844FF0030387F826304FF02B
:106B8000000387F8273007F1240340F60000C4F221
:106B90000100194606F0D8FF07F10403184607F074
:106BA00009FC4FF032033B714FF005037B714FF04E
:106BB0000503BB714FF00103FB7107F10403184695
:106BC00007F046FB4FF008004FF0010108F006FB0C
:106BD0004FF000504FF0010108F000FB07F11803DF
:106BE000184609F049FC40F28D23BB834FF00403A3
:106BF0003B834FF00003FB834FF000037B834FF098
:106C0000000387F8203007F1180340F60040C4F273
:106C10000000194609F0ACF840F60040C4F200004C
:106C20004FF004014FF0010209F034FE40F600403D
:106C3000C4F200004FF001010AF08AFD40F6004066
:106C4000C4F200004FF001014FF0010209F0EAFC2C
:106C500040F60040C4F200004FF0000109F098FC3B
:106C600007F10803184606F069FA4FF03C03BB60D1
:106C70004FF00003FB604FF000033B614FF0000357
:106C80007B6107F108034FF00000194606F018FA7F
:106C90004FF000004FF0010106F06AFA4FF00800D3
:106CA0004FF0800106F05CFB4FF000004FF0010157
:106CB00006F0C6FA07F12807BD4680BD80B500AFD3
:106CC00040F60040C4F200004FF001010AF040FD20
:106CD00040F22413C2F200031B78012B42D140F290
:106CE0002613C2F200031B88B3F5007F16D140F2D1
:106CF0002A13C2F200031B78012B40F0948040F26B
:106D00002613C2F200034FF000021A8040F224134F
:106D1000C2F200034FF002021A70D9E740F22613C4
:106D2000C2F200031B881A4642F6A813C2F20003FF
:106D30009B5C4FF00800194606F012FB4FF0000074
:106D40004FF0010106F07CFA40F22613C2F2000374
:106D50001B8803F101039AB240F22613C2F200032A
:106D60001A8063E040F22413C2F200031B78022B66
:106D700043D140F22813C2F200031B88B3F5007F11
:106D800015D140F22A13C2F200031B78012B4CD11B
:106D900040F22813C2F200034FF000021A8040F2C2
:106DA0002413C2F200034FF001021A7090E740F280
:106DB0002813C2F200031B881A4642F6A813C2F237
:106DC0000003134493F800324FF00800194606F010
:106DD000C7FA4FF000004FF0010106F031FA40F21F
:106DE0002813C2F200031B8803F101039AB240F298
:106DF0002813C2F200031A8018E040F22413C2F2F2
:106E000000031B78002B11D140F22613C2F20003BD
:106E10004FF000021A8040F22813C2F200034FF034
:106E200000021A8002E000BF00E000BFBD4680BD46
:106E300080B586B000AF4FF400304FF0010108F08C
:106E4000CDF907F11403184606F05EFF4FF0040376
:106E5000BB824FF00303BB754FF01803FB7507F1BE
:106E6000140340F60000C4F20100194606F06CFE5F
:106E700007F11403184606F047FF4FF00803BB82E2
:106E80004FF00303BB754FF00403FB7507F11403C8
:106E900040F60000C4F20100194606F055FE07F165
:106EA000040318460AF012FF4FF416537B604FF0AC
:106EB00000033B814FF000037B814FF00003BB8157
:106EC0004FF000033B824FF00C03FB8107F10403FA
:106ED00044F20040C4F2000019460AF041FE44F2B8
:106EE0000040C4F200004FF001010AF05DFF07F11D
:106EF0001807BD4680BD00BF80B582B000AF034615
:106F0000FB7144F20040C4F200004FF080010BF02E
:106F1000BBF90346002BF4D0FB7944F20040C4F2E5
:106F2000000019460BF08EF807F10807BD4680BD3A
:106F300080B584B000AF78604FF00003FB810AE0B9
:106F4000FA897B6813441B781846FFF7D5FFFB8945
:106F500003F10103FB81FA897B6813441B78002B42
:106F6000EED107F11007BD4680BD00BF80B584B0EB
:106F700000AF78600B46FB704FF00003FB810EE022
:106F8000FA897B6813441B781846FFF7B5FFFB8925
:106F900003F10103FB81FB7803F1FF33FB70FB7806
:106FA000002BEDD107F11007BD4680BD80B582B042
:106FB00000AF0346FB71FB79002B0AD044F200407E
:106FC000C4F200004FF020010BF05EF90346002BE5
:106FD000F4D044F20040C4F200000BF045F8034640
:106FE000DBB2184607F10807BD4680BD80B584B006
:106FF00000AF78604FF00003BB814FF00100FFF756
:10700000D5FF0346FB73FB7B0A2B05D0FB7B0D2BC7
:1070100002D0FB7B002B0BD1BA897B6813444FF065
:1070200000021A70BB89184607F11007BD4680BDE3
:10703000BA897B681344FA7B1A70BB8903F1010398
:10704000BB81DAE780B483B000AF0346FB71FB7904
:10705000092B04D8FB7903F13003DBB203E0FB79A1
:1070600003F13703DBB2184607F10C07BD4680BCBD
:10707000704700BF90B587B000AF78600B46FB70DB
:107080004FF00203FB754FF030033B724FF0780373
:107090007B72FB7803F1FF33072B00F2C58001A15F
:1070A00051F823F001720008D5710008A57100089D
:1070B000757100084571000819710008ED7000082D
:1070C000C5700008FC7D7B684FEA1373DBB218467D
:1070D000FFF7B8FF03461A4607F1180101EB040356
:1070E00003F8102CFB7D03F10103FB75FC7D7B682D
:1070F00023F070434FEA1363DBB21846FFF7A2FF99
:1071000003461A4607F1180101EB040303F8102C9B
:10711000FB7D03F10103FB75FC7D7B6823F07F435E
:107120004FEA1353DBB21846FFF78CFF03461A46AB
:1071300007F1180101EB040303F8102CFB7D03F1A8
:107140000103FB75FC7D7B6823F07F4323F4700310
:107150004FEA1343DBB21846FFF774FF03461A46A3
:1071600007F1180101EB040303F8102CFB7D03F178
:107170000103FB75FC7D7B684FEA03434FEA134331
:107180004FEA1333DBB21846FFF75CFF03461A469B
:1071900007F1180101EB040303F8102CFB7D03F148
:1071A0000103FB75FC7D7B684FEA03534FEA1353E1
:1071B0004FEA1323DBB21846FFF744FF03461A4693
:1071C00007F1180101EB040303F8102CFB7D03F118
:1071D0000103FB75FC7D7B6803F0FF034FEA13138B
:1071E000DBB21846FFF72EFF03461A4607F11801D7
:1071F00001EB040303F8102CFB7D03F10103FB7585
:10720000FC7D7B68DBB203F00F031846FFF71AFF23
:1072100003461A4607F1180101EB040303F8102C8A
:10722000FB7D03F10103FB7507F10802FB7D1046AE
:107230001946FFF79BFE07F11C07BD4690BD00BF36
:1072400080B586B000AF78600B46FB704FF001034D
:10725000FB757B68002B07DA4FF02D033B737B68CF
:10726000C3F100037B6002E04FF020033B73FB7827
:1072700003F1FF33082B00F2B38101A050F823F093
:10728000997500083D750008E174000885740008D0
:1072900025740008C57300086573000805730008AD
:1072A000A5720008F87D7A6842F6A173C4F2B8436B
:1072B00083FB02134FEA23714FEAE273C3EB01032E
:1072C0004CF60021C3F69A3101FB03F3C3EB020332
:1072D00043F68932C5F2E65282FB03124FEA62623C
:1072E0004FEAE373C3EB0203DBB203F13003DAB21C
:1072F00007F1180101EB000303F80C2CFB7D03F1EF
:107300000103FB75F87D7A6843F68933C5F2E653CD
:1073100083FB02134FEA63614FEAE273C3EB01039D
:107320004EF20011C0F2F55101FB03F3C3EB02036F
:107330004CF66B22C6F65F3282FB03124FEAA25272
:107340004FEAE373C3EB0203DBB203F13003DAB2BB
:1073500007F1180101EB000303F80C2CFB7D03F18E
:107360000103FB75F87D7A684CF66B23C6F65F3334
:1073700083FB02134FEAA3514FEAE273C3EB01030D
:1073800049F28061C0F2980101FB03F3C3EB0203F1
:107390004DF68362C4F21B3282FB03124FEAA24213
:1073A0004FEAE373C3EB0203DBB203F13003DAB25B
:1073B00007F1180101EB000303F80C2CFB7D03F12E
:1073C0000103FB75F87D7A684DF68363C4F21B33C5
:1073D00083FB02134FEAA3414FEAE273C3EB0103BD
:1073E00044F24021C0F20F0101FB03F3C3EB02039F
:1073F0004BF28952C1F2F84282FB03124FEA623229
:107400004FEAE373C3EB0203DBB203F13003DAB2FA
:1074100007F1180101EB000303F80C2CFB7D03F1CD
:107420000103FB75F87D7A684BF28953C1F2F8438A
:1074300083FB02134FEA63314FEAE273C3EB0103AC
:1074400048F2A061C0F2010101FB03F3C3EB0203A8
:1074500048F6AD32C6F6DB0282FB03124FEA223257
:107460004FEAE373C3EB0203DBB203F13003DAB29A
:1074700007F1180101EB000303F80C2CFB7D03F16D
:107480000103FB75F97D7A6848F6AD33C6F6DB0378
:1074900083FB02034FEA23304FEAE273C3EB00039E
:1074A00042F2107000FB03F3C3EB020344F6D35225
:1074B000C1F2620282FB03024FEAA2124FEAE373B7
:1074C000C3EB0203DBB203F13003DAB207F11800B9
:1074D00000EB010303F80C2CFB7D03F10103FB75AA
:1074E000F97D7A6844F6D353C1F2620383FB020349
:1074F0004FEAA3104FEAE273C3EB00034FF47A7034
:1075000000FB03F3C3EB020348F21F52C5F2EB1278
:1075100082FB03024FEA62124FEAE373C3EB0203FA
:10752000DBB203F13003DAB207F1180000EB01031C
:1075300003F80C2CFB7D03F10103FB75F97D7A68E0
:1075400048F21F53C5F2EB1383FB02034FEA6310AB
:107550004FEAE273C3EB00034FF0640000FB03F358
:10756000C3EB020346F26762C6F2666282FB030265
:107570004FEAA2024FEAE373C3EB0203DBB203F16B
:107580003003DAB207F1180000EB010303F80C2C0A
:10759000FB7D03F10103FB75F87D796846F26763B3
:1075A000C6F2666383FB01234FEAA3024FEAE1734D
:1075B000C3EB020213464FEA830313444FEA43032B
:1075C000C3EB0102D3B203F13003DAB207F11801C1
:1075D00001EB000303F80C2CFB7D03F10103FB75A9
:1075E00007F10C02FB7D10461946FFF7BFFC07F1BF
:1075F0001807BD4680BD00BF80B500AF4FF000004A
:1076000007F01EFC4FF400004FF0010107F0E6FD0B
:10761000BD4680BD80B400AF40F28013C2F20003CB
:107620004FF003021A60BD4680BC704780B483B03F
:1076300000AF42F68463C2F200037B607B689B7AF2
:10764000002B07D040F28013C2F200034FF0050276
:107650001A6006E040F28013C2F200034FF001020C
:107660001A6007F10C07BD4680BC704780B582B038
:1076700000AF4FF000604FF4405106F0A9FF4FF407
:10768000C06006F0D1FD07F10403184606F092FE33
:107690004FF014033B714FF001037B714FF0010376
:1076A000BB714FF00103FB7107F10403184606F0AC
:1076B000CFFD07F10807BD4680BD00BF80B582B091
:1076C00000AF0346FB71FB79002B08D040F6004069
:1076D000C4F201004FF4804106F092FB07E040F64F
:1076E0000040C4F201004FF4804106F07BFB07F13B
:1076F0000807BD4680BD00BF80B485B000AF4FF223
:10770000E873C1F6FF731B687B604FF2EC73C1F640
:10771000FF731B68BB604FF2F073C1F6FF731B6809
:10772000FB607B68002B71D07B68DAB240F20C03FF
:10773000C2F200039A707B6803F47F434FEA13237D
:10774000DAB240F20C03C2F200031A717B6803F450
:107750007F034FEA1343DAB240F20C03C2F2000394
:107760009A717B684FEA1363DAB240F20C03C2F2FB
:1077700000031A72BB68DAB240F20C03C2F20003D3
:107780009A72BB6803F47F434FEA1323DAB240F2E4
:107790000C03C2F200031A73BB6803F47F034FEAC1
:1077A0001343DAB240F20C03C2F200039A73BB68CF
:1077B0004FEA1363DAB240F20C03C2F200031A7408
:1077C000FB68DAB240F20C03C2F200039A74FB6861
:1077D00003F47F434FEA1323DAB240F20C03C2F200
:1077E00000031A75FB6803F47F034FEA1343DAB210
:1077F00040F20C03C2F200039A75FB684FEA136370
:10780000DAB240F20C03C2F200031A7607F1140751
:10781000BD4680BC704700BF80B483B000AF034654
:10782000FB71FB79092B04D8FB7903F13003DBB240
:1078300003E0FB7903F13703DBB2184607F10C07CD
:10784000BD4680BC704700BF90B587B000AF786080
:107850000B46FB704FF00203FB754FF030033B7299
:107860004FF078037B72FB7803F1FF33072B00F2B4
:10787000C58001A151F823F0D5790008A979000845
:10788000797900084979000819790008ED7800082D
:10789000C178000899780008FC7D7B684FEA137373
:1078A000DBB21846FFF7B8FF03461A4607F1180186
:1078B00001EB040303F8102CFB7D03F10103FB75BE
:1078C000FC7D7B6823F070434FEA1363DBB21846FC
:1078D000FFF7A2FF03461A4607F1180101EB040364
:1078E00003F8102CFB7D03F10103FB75FC7D7B6825
:1078F00023F07F434FEA1353DBB21846FFF78CFFA8
:1079000003461A4607F1180101EB040303F8102C93
:10791000FB7D03F10103FB75FC7D7B6823F07F4356
:1079200023F470034FEA1343DBB21846FFF774FFEA
:1079300003461A4607F1180101EB040303F8102C63
:10794000FB7D03F10103FB75FC7D7B684FEA03437C
:107950004FEA13434FEA1333DBB21846FFF75CFFDD
:1079600003461A4607F1180101EB040303F8102C33
:10797000FB7D03F10103FB75FC7D7B684FEA03533C
:107980004FEA13534FEA1323DBB21846FFF744FFC5
:1079900003461A4607F1180101EB040303F8102C03
:1079A000FB7D03F10103FB75FC7D7B6803F0FF03A6
:1079B0004FEA1313DBB21846FFF72EFF03461A46B1
:1079C00007F1180101EB040303F8102CFB7D03F110
:1079D0000103FB75FC7D7B68DBB203F00F031846E7
:1079E000FFF71AFF03461A4607F1180101EB0403DB
:1079F00003F8102CFB7D03F10103FB7507F108026E
:107A0000FB7D1046194600F0C5FA07F11C07BD467C
:107A100090BD00BF80B586B000AF78600B46FB70AC
:107A20004FF00103FB757B68002B07DA4FF02D0345
:107A30003B737B68C3F100037B6002E04FF02003DF
:107A40003B73FB7803F1FF33082B00F2B38101A0F5
:107A500050F823F06D7D0008117D0008B57C00080A
:107A6000597C0008F97B0008997B0008397B0008E5
:107A7000D97A0008797A0008F87D7A6842F6A1730D
:107A8000C4F2B84383FB02134FEA23714FEAE27357
:107A9000C3EB01034CF60021C3F69A3101FB03F35B
:107AA000C3EB020343F68932C5F2E65282FB0312AE
:107AB0004FEA62624FEAE373C3EB0203DBB203F106
:107AC0003003DAB207F1180101EB000303F80C2CC4
:107AD000FB7D03F10103FB75F87D7A6843F689337A
:107AE000C5F2E65383FB02134FEA63614FEAE27388
:107AF000C3EB01034EF20011C0F2F55101FB03F399
:107B0000C3EB02034CF66B22C6F65F3282FB031214
:107B10004FEAA2524FEAE373C3EB0203DBB203F175
:107B20003003DAB207F1180101EB000303F80C2C63
:107B3000FB7D03F10103FB75F87D7A684CF66B233E
:107B4000C6F65F3383FB02134FEAA3514FEAE27399
:107B5000C3EB010349F28061C0F2980101FB03F31A
:107B6000C3EB02034DF68362C4F21B3282FB0312A5
:107B70004FEAA2424FEAE373C3EB0203DBB203F125
:107B80003003DAB207F1180101EB000303F80C2C03
:107B9000FB7D03F10103FB75F87D7A684DF6836385
:107BA000C4F21B3383FB02134FEAA3414FEAE27393
:107BB000C3EB010344F24021C0F20F0101FB03F3C8
:107BC000C3EB02034BF28952C1F2F84282FB03126B
:107BD0004FEA62324FEAE373C3EB0203DBB203F115
:107BE0003003DAB207F1180101EB000303F80C2CA3
:107BF000FB7D03F10103FB75F87D7A684BF2895335
:107C0000C1F2F84383FB02134FEA63314FEAE27398
:107C1000C3EB010348F2A061C0F2010101FB03F3D1
:107C2000C3EB020348F6AD32C6F6DB0282FB031259
:107C30004FEA22324FEAE373C3EB0203DBB203F1F4
:107C40003003DAB207F1180101EB000303F80C2C42
:107C5000FB7D03F10103FB75F97D7A6848F6AD33CE
:107C6000C6F6DB0383FB02034FEA23304FEAE273DD
:107C7000C3EB000342F2107000FB03F3C3EB0203FB
:107C800044F6D352C1F2620282FB03024FEAA2120F
:107C90004FEAE373C3EB0203DBB203F13003DAB262
:107CA00007F1180000EB010303F80C2CFB7D03F136
:107CB0000103FB75F97D7A6844F6D353C1F2620380
:107CC00083FB02034FEAA3104FEAE273C3EB000306
:107CD0004FF47A7000FB03F3C3EB020348F21F5228
:107CE000C5F2EB1282FB03024FEA62124FEAE37322
:107CF000C3EB0203DBB203F13003DAB207F1180081
:107D000000EB010303F80C2CFB7D03F10103FB7571
:107D1000F97D7A6848F21F53C5F2EB1383FB020327
:107D20004FEA63104FEAE273C3EB00034FF06400C5
:107D300000FB03F3C3EB020346F26762C6F266621E
:107D400082FB03024FEAA2024FEAE373C3EB020392
:107D5000DBB203F13003DAB207F1180000EB0103E4
:107D600003F80C2CFB7D03F10103FB75F87D7968AA
:107D700046F26763C6F2666383FB01234FEAA30200
:107D80004FEAE173C3EB020213464FEA8303134445
:107D90004FEA4303C3EB0102D3B203F13003DAB27B
:107DA00007F1180101EB000303F80C2CFB7D03F134
:107DB0000103FB7507F10C02FB7D1046194600F02C
:107DC000E9F807F11807BD4680BD00BF80B582B055
:107DD00000AF0346FB7140F28013C2F200031B6840
:107DE000052B56D140F27D13C2F200031B78DBB2A3
:107DF000012B4ED140F27813C2F200034FF0010282
:107E00001A6040F27813C2F200031B689BB207F1BC
:107E1000070210464FF0C0011A460CF0DBF940F2A1
:107E20007813C2F200031B689BB24FF001001946A1
:107E30000DF0B2FA4FF001000CF09EFF1BE040F293
:107E40002C13C2F200031B6803F1010240F22C1351
:107E5000C2F200031A6040F22C13C2F200031A6847
:107E600042F210739A4206D140F27813C2F2000334
:107E70004FF000021A6040F27813C2F200031B6850
:107E8000002BDCD140F22C13C2F200034FF00002B1
:107E90001A6007F10807BD4680BD00BF80B582B0FB
:107EA00000AF786040F28013C2F200031B68052B1C
:107EB0006BD140F27D13C2F200031B78DBB2012BC1
:107EC00063D140F27813C2F200034FF000021A604F
:107ED0000BE040F27813C2F200031B6803F10102C9
:107EE00040F27813C2F200031A6040F27813C2F233
:107EF00000031A687B6813441B78002BE9D140F219
:107F00007813C2F200031B689BB278684FF0C0017F
:107F10001A460CF05FF940F27813C2F200031B68B6
:107F20009BB24FF0010019460DF036FA4FF00100F8
:107F30000CF022FF1BE040F22C13C2F200031B687E
:107F400003F1010240F22C13C2F200031A6040F266
:107F50002C13C2F200031A6842F210739A4206D13F
:107F600040F27813C2F200034FF000021A6040F2B0
:107F70007813C2F200031B68002BDCD140F22C13F3
:107F8000C2F200034FF000021A6007F10807BD4675
:107F900080BD00BF80B582B000AF78600B46FB703B
:107FA00040F28013C2F200031B68052B53D140F24C
:107FB0007D13C2F200031B78DBB2012B4BD1FA78A0
:107FC00040F27813C2F200031A6040F27813C2F252
:107FD00000031B689BB278684FF0C0011A460CF092
:107FE000F9F840F27813C2F200031B689BB24FF01D
:107FF000010019460DF0D0F94FF001000CF0BCFE65
:108000001BE040F22C13C2F200031B6803F10102D3
:1080100040F22C13C2F200031A6040F22C13C2F299
:1080200000031A6842F210739A4206D140F27813A4
:10803000C2F200034FF000021A6040F27813C2F25D
:1080400000031B68002BDCD140F22C13C2F20003AA
:108050004FF000021A6007F10807BD4680BD00BF5F
:1080600080B485B000AF0346FB7140F28013C2F2CA
:1080700000031B68052B24D1FB79002B06D040F2AE
:108080007413C2F200031B68002BF8D040F2741383
:10809000C2F200031B68002B13D042F6E853C2F271
:1080A00000031B78FB7340F27413C2F200031B68D9
:1080B00003F1FF3240F27413C2F200031A60FB7B3B
:1080C00001E04FF00003184607F11407BD4680BCDD
:1080D000704700BF80B485B000AF78604FF00003F8
:1080E000FB6040F28013C2F200031B68052B21D114
:1080F00019E0FA687B681A44F96842F6E853C2F25C
:1081000000035B5C137040F27413C2F200031B683F
:1081100003F1FF3240F27413C2F200031A60FB68ED
:1081200003F10103FB6040F27413C2F200031B6809
:10813000002BDED1FB68DBB2184607F11407BD4601
:1081400080BC704780B485B000AF78600B46FB7090
:108150004FF00003BB6040F28013C2F200031B68C3
:10816000052B2CD14FF00003FB6024E040F2741388
:10817000C2F200031B68002BF8D0BA687B681A446F
:10818000B96842F6E853C2F200035B5C137040F238
:108190007413C2F200031B6803F1FF3240F2741340
:1081A000C2F200031A60BB6803F10103BB60FB6805
:1081B00003F10103FB60FA78FB689A42D6DC07F111
:1081C0001407BD4680BC704780B582B000AF7860B0
:1081D0007868FFF77FFF0346184607F10807BD469A
:1081E00080BD00BF80B483B000AF78607B68002B97
:1081F0000CBF00220122D2B203F1FF337B60002AC0
:10820000F4D107F10C07BD4680BC704780B500AFC4
:1082100000F022F8BD4680BD80B400AF40F23413B8
:10822000C2F200031B68002B07D140F23013C2F2E8
:1082300000034FF000021A700BE040F23413C2F258
:1082400000031B6803F1FF3240F23413C2F2000353
:108250001A60BD4680BC704780B500AF6FF0040067
:1082600007F004FC4FF4617007F026FC6FF001008A
:1082700007F032FC4FF0010007F060FCBD4680BD06
:1082800080B582B000AF78606FF0010007F024FC89
:108290004FF4617007F010FC4FF0000007F01CFC79
:1082A0007B6803F1FF3240F23413C2F200031A601C
:1082B00040F23013C2F200034FF001021A704FF087
:1082C000010007F009FC40F23013C2F200031B78F2
:1082D000002BF8D107F10807BD4680BD80B582B0FC
:1082E00000AF78606FF0010007F0F6FB45F2404008
:1082F000C0F2890007F0E0FB4FF0000007F0ECFB54
:108300007B6803F1FF3240F23413C2F200031A60BB
:1083100040F23013C2F200034FF001021A704FF026
:10832000010007F0D9FB40F23013C2F200031B78C2
:10833000002BF8D107F10807BD4680BD80B582B09B
:1083400000AF78606FF0010007F0C6FB42F2283002
:1083500007F0B2FB4FF0000007F0BEFB7B6803F1B3
:10836000FF3240F23413C2F200031A6040F23013BD
:10837000C2F200034FF001021A704FF0010007F043
:10838000ABFB40F23013C2F200031B78002BF8D194
:1083900007F10807BD4680BD80B582B000AF7860A8
:1083A0006FF0010007F098FB4FF0090007F084FB25
:1083B0004FF0000007F090FB7B6803F1FF3240F2C2
:1083C0003413C2F200031A6040F23013C2F2000309
:1083D0004FF001021A704FF0010007F07DFB40F2F0
:1083E0003013C2F200031B78002BF8D107F1080705
:1083F000BD4680BD30BF704720BF704740BF70474B
:10840000BFF36F8F7047BFF34F8F7047BFF35F8F1E
:10841000704701DF7047EFF31480704780F31488D2
:10842000BFF36F8F7047EFF30980704780F30988BF
:108430007047EFF30880704780F30888704772B682
:10844000704762B6704771B6704761B6704780F387
:1084500011887047EFF31280704740BA704700BA36
:108460007047000080B582B000AF4FF02A03FB7167
:108470004FF030004FF0010106F084FE4FF4F85346
:108480003B804FF00303BB704FF01803FB703B467B
:1084900041F20000C4F20100194605F055FB4FF00F
:1084A00004033B804FF00303BB704FF01803FB70D5
:1084B0003B4641F20040C4F20100194605F044FB7E
:1084C0004FF080033B804FF00403FB704FF0030339
:1084D000BB703B4641F20000C4F20100194605F0B2
:1084E00033FB4FF480604FF0010106F01FFE4FF0A8
:1084F00002004FF0010106F019FE06F0ADFF00F09A
:1085000047F80346FB71FB792A2B01D0FB7939E050
:1085100000F00AFA0346FB71FB792A2B01D0FB79A4
:1085200030E042F64063C2F200034FF001021A70DD
:1085300042F64063C2F200034FF000025A6042F676
:108540004063C2F200034FF000029A6042F64063BB
:10855000C2F200034FF00002DA6042F64063C2F25A
:1085600000034FF000021A6142F64063C2F20003BA
:108570004FF000025A6142F64060C2F2000006F07D
:10858000B1FFFB79184607F10807BD4680BD00BF63
:1085900080B586B000AF4FF02A03FB714FF00003A7
:1085A000BB604FF00003FB604FF00003FB744FF023
:1085B00000037B6142F64063C2F200036FF04D029C
:1085C0001A7042F64063C2F200034FF000025A6094
:1085D00042F64063C2F200034FF000029A6042F696
:1085E0004063C2F200034FF00002DA6042F64063DB
:1085F000C2F200034FF000021A6142F64063C2F279
:1086000000034FF000025A6142F64060C2F20000DF
:1086100006F068FF4FF0030006F0D0FF4FF00100B6
:1086200006F0BCFF42F62863C2F200034FF00002DE
:108630001A6042F62863C2F200034FF000025A604B
:1086400042F62863C2F200034FF000029A6042F63D
:108650002863C2F200034FF00002DA6042F628639A
:10866000C2F200034FF480621A6142F62860C2F23F
:10867000000007F00FF803F08DF80346FB71FB795B
:108680002A2B01D0FB793AE142F62863C2F20003BB
:108690004FF4D5721A6042F62863C2F200034FF01D
:1086A00008025A6042F62863C2F200034FF040020B
:1086B0009A6042F62863C2F200034FF00002DA60CB
:1086C00042F62863C2F200034FF480621A6142F658
:1086D0002860C2F2000006F0DDFF03F085F80346D3
:1086E000FB71FB792A2B0AD140F23813C2F2000346
:1086F0004FF001021A604FF080437B612EE042F69A
:108700002863C2F200034FF000021A6042F62863A9
:10871000C2F200034FF037025A6042F62863C2F2F9
:1087200000034FF040029A6042F62863C2F2000351
:108730004FF00002DA6042F62863C2F200034FF401
:1087400080621A6142F62860C2F2000006F0A2FFC1
:108750004FF0370003F090F80346FB7142F62863B0
:10876000C2F200034FF000021A6042F62863C2F220
:1087700000034FF037025A6042F62863C2F200034A
:108780004FF040029A6042F62863C2F200034FF0B5
:108790000002DA6042F62863C2F200034FF48062FE
:1087A0001A6142F62860C2F2000006F073FF4FF033
:1087B000370003F061F80346FB71FB792A2B40F088
:1087C0009D807AE042F62863C2F200034FF0000277
:1087D0001A6042F62863C2F200034FF037025A6073
:1087E00042F62863C2F200034FF040029A6042F65C
:1087F0002863C2F200034FF00002DA6042F62863F9
:10880000C2F200034FF480621A6142F62860C2F29D
:10881000000006F03FFF4FF0370003F02DF803464D
:10882000FB71FB792A2B01D0FB7968E07B6943F06F
:10883000004242F4801242F62863C2F200031A603A
:1088400042F62863C2F200034FF029025A6042F652
:108850002863C2F200034FF040029A6042F6286398
:10886000C2F200034FF00002DA6042F62863C2F25F
:1088700000034FF480621A6142F62860C2F20000E1
:1088800006F008FF03F0ECF80346FB71FB792A2B96
:1088900001D0FB7933E04FF0000006F05DFF0346A6
:1088A000BB60BB684FEAD373012B14BF00230123C5
:1088B000FB74FB6803F10103FB60FB7C002B05D11B
:1088C000FA684FF6FE739A427FF67CAFFA684FF66D
:1088D000FE739A4204D94FF01B03FB71FB790EE043
:1088E000BB6803F08043BB60BB68002B06D040F23E
:1088F0003813C2F200034FF002021A60FB791846E7
:1089000007F11807BD4680BD80B582B000AF4FF0BB
:108910002A03FB714FF0000006F050FEFB79184669
:1089200007F10807BD4680BD80B582B000AF4FF0AB
:108930002A03FB714FF00103BB8006F061FE034682
:10894000002B04D14FF02503FB71FB7921E140F2AC
:108950003813C2F200031B68042B59D042F6286377
:10896000C2F200034FF000021A6042F62863C2F21E
:1089700000034FF002025A6042F62863C2F200037D
:108980004FF0C0029A6042F62863C2F200034FF033
:108990000002DA6042F62863C2F200034FF48062FC
:1089A0001A6142F62860C2F2000006F073FE03F07E
:1089B00087F80346FB71FB792A2B01D0FB79E8E0AD
:1089C0004FF0000006F0C8FE024640F24C13C2F21F
:1089D00000031A604FF0040006F0BEFE024640F2AB
:1089E0004C13C2F200035A604FF0080006F0B4FEC8
:1089F000024640F24C13C2F200039A604FF00C00A2
:108A000006F0AAFE024640F24C13C2F20003DA60FE
:108A100040F23813C2F200031B68002B14D040F25E
:108A20003813C2F200031B68012B0DD040F238133B
:108A3000C2F200031B68062B06D040F23813C2F2C4
:108A400000031B68022B36D142F62863C2F20003F2
:108A50004FF000021A6042F62863C2F200034FF0A2
:108A600003025A6042F62863C2F200034FF040024C
:108A70009A6042F62863C2F200034FF00002DA6007
:108A800042F62863C2F200034FF480621A6142F694
:108A90002860C2F2000006F0FDFD07F104034FF06C
:108AA0000300194603F04CF80346FB71FB792A2BAF
:108AB00001D0FB796DE040F23813C2F200031B686D
:108AC000042B62D0BB881A4640F25C13C2F200034A
:108AD0001A60BB884FEA03431A4642F62863C2F283
